{
  "_format": "hh-sol-artifact-1",
  "contractName": "CharactersNFT",
  "sourceName": "contracts/CharactersNFT.sol",
  "abi": [
    {
      "inputs": [],
      "stateMutability": "nonpayable",
      "type": "constructor"
    },
    {
      "anonymous": false,
      "inputs": [
        {
          "indexed": true,
          "internalType": "address",
          "name": "owner",
          "type": "address"
        },
        {
          "indexed": true,
          "internalType": "address",
          "name": "approved",
          "type": "address"
        },
        {
          "indexed": true,
          "internalType": "uint256",
          "name": "tokenId",
          "type": "uint256"
        }
      ],
      "name": "Approval",
      "type": "event"
    },
    {
      "anonymous": false,
      "inputs": [
        {
          "indexed": true,
          "internalType": "address",
          "name": "owner",
          "type": "address"
        },
        {
          "indexed": true,
          "internalType": "address",
          "name": "operator",
          "type": "address"
        },
        {
          "indexed": false,
          "internalType": "bool",
          "name": "approved",
          "type": "bool"
        }
      ],
      "name": "ApprovalForAll",
      "type": "event"
    },
    {
      "anonymous": false,
      "inputs": [
        {
          "indexed": true,
          "internalType": "address",
          "name": "previousOwner",
          "type": "address"
        },
        {
          "indexed": true,
          "internalType": "address",
          "name": "newOwner",
          "type": "address"
        }
      ],
      "name": "OwnershipTransferred",
      "type": "event"
    },
    {
      "anonymous": false,
      "inputs": [
        {
          "indexed": true,
          "internalType": "address",
          "name": "from",
          "type": "address"
        },
        {
          "indexed": true,
          "internalType": "address",
          "name": "to",
          "type": "address"
        },
        {
          "indexed": true,
          "internalType": "uint256",
          "name": "tokenId",
          "type": "uint256"
        }
      ],
      "name": "Transfer",
      "type": "event"
    },
    {
      "inputs": [
        {
          "internalType": "uint256",
          "name": "charLevel",
          "type": "uint256"
        },
        {
          "internalType": "string",
          "name": "_baseSvg",
          "type": "string"
        }
      ],
      "name": "appendCharacterLevel",
      "outputs": [
        {
          "internalType": "string",
          "name": "",
          "type": "string"
        }
      ],
      "stateMutability": "pure",
      "type": "function"
    },
    {
      "inputs": [
        {
          "internalType": "address",
          "name": "to",
          "type": "address"
        },
        {
          "internalType": "uint256",
          "name": "tokenId",
          "type": "uint256"
        }
      ],
      "name": "approve",
      "outputs": [],
      "stateMutability": "nonpayable",
      "type": "function"
    },
    {
      "inputs": [
        {
          "internalType": "address",
          "name": "owner",
          "type": "address"
        }
      ],
      "name": "balanceOf",
      "outputs": [
        {
          "internalType": "uint256",
          "name": "",
          "type": "uint256"
        }
      ],
      "stateMutability": "view",
      "type": "function"
    },
    {
      "inputs": [
        {
          "internalType": "uint256",
          "name": "_tokenId",
          "type": "uint256"
        }
      ],
      "name": "del",
      "outputs": [],
      "stateMutability": "nonpayable",
      "type": "function"
    },
    {
      "inputs": [
        {
          "internalType": "string",
          "name": "_characterName",
          "type": "string"
        },
        {
          "internalType": "string",
          "name": "user",
          "type": "string"
        }
      ],
      "name": "encodeBaseSVG",
      "outputs": [
        {
          "internalType": "string",
          "name": "",
          "type": "string"
        }
      ],
      "stateMutability": "pure",
      "type": "function"
    },
    {
      "inputs": [
        {
          "internalType": "string",
          "name": "_svg",
          "type": "string"
        },
        {
          "internalType": "string",
          "name": "_contractName",
          "type": "string"
        }
      ],
      "name": "encodeJson",
      "outputs": [
        {
          "internalType": "string",
          "name": "",
          "type": "string"
        }
      ],
      "stateMutability": "pure",
      "type": "function"
    },
    {
      "inputs": [
        {
          "internalType": "uint256",
          "name": "tokenId",
          "type": "uint256"
        }
      ],
      "name": "getApproved",
      "outputs": [
        {
          "internalType": "address",
          "name": "",
          "type": "address"
        }
      ],
      "stateMutability": "view",
      "type": "function"
    },
    {
      "inputs": [
        {
          "internalType": "address",
          "name": "owner",
          "type": "address"
        },
        {
          "internalType": "address",
          "name": "operator",
          "type": "address"
        }
      ],
      "name": "isApprovedForAll",
      "outputs": [
        {
          "internalType": "bool",
          "name": "",
          "type": "bool"
        }
      ],
      "stateMutability": "view",
      "type": "function"
    },
    {
      "inputs": [
        {
          "internalType": "string",
          "name": "_characterName",
          "type": "string"
        },
        {
          "internalType": "string",
          "name": "user",
          "type": "string"
        },
        {
          "internalType": "address",
          "name": "reciever",
          "type": "address"
        }
      ],
      "name": "makeCharacterNFT",
      "outputs": [],
      "stateMutability": "nonpayable",
      "type": "function"
    },
    {
      "inputs": [],
      "name": "name",
      "outputs": [
        {
          "internalType": "string",
          "name": "",
          "type": "string"
        }
      ],
      "stateMutability": "view",
      "type": "function"
    },
    {
      "inputs": [],
      "name": "owner",
      "outputs": [
        {
          "internalType": "address",
          "name": "",
          "type": "address"
        }
      ],
      "stateMutability": "view",
      "type": "function"
    },
    {
      "inputs": [
        {
          "internalType": "uint256",
          "name": "tokenId",
          "type": "uint256"
        }
      ],
      "name": "ownerOf",
      "outputs": [
        {
          "internalType": "address",
          "name": "",
          "type": "address"
        }
      ],
      "stateMutability": "view",
      "type": "function"
    },
    {
      "inputs": [],
      "name": "renounceOwnership",
      "outputs": [],
      "stateMutability": "nonpayable",
      "type": "function"
    },
    {
      "inputs": [
        {
          "internalType": "address",
          "name": "from",
          "type": "address"
        },
        {
          "internalType": "address",
          "name": "to",
          "type": "address"
        },
        {
          "internalType": "uint256",
          "name": "tokenId",
          "type": "uint256"
        }
      ],
      "name": "safeTransferFrom",
      "outputs": [],
      "stateMutability": "nonpayable",
      "type": "function"
    },
    {
      "inputs": [
        {
          "internalType": "address",
          "name": "from",
          "type": "address"
        },
        {
          "internalType": "address",
          "name": "to",
          "type": "address"
        },
        {
          "internalType": "uint256",
          "name": "tokenId",
          "type": "uint256"
        },
        {
          "internalType": "bytes",
          "name": "data",
          "type": "bytes"
        }
      ],
      "name": "safeTransferFrom",
      "outputs": [],
      "stateMutability": "nonpayable",
      "type": "function"
    },
    {
      "inputs": [
        {
          "internalType": "address",
          "name": "operator",
          "type": "address"
        },
        {
          "internalType": "bool",
          "name": "approved",
          "type": "bool"
        }
      ],
      "name": "setApprovalForAll",
      "outputs": [],
      "stateMutability": "nonpayable",
      "type": "function"
    },
    {
      "inputs": [
        {
          "internalType": "bytes4",
          "name": "interfaceId",
          "type": "bytes4"
        }
      ],
      "name": "supportsInterface",
      "outputs": [
        {
          "internalType": "bool",
          "name": "",
          "type": "bool"
        }
      ],
      "stateMutability": "view",
      "type": "function"
    },
    {
      "inputs": [],
      "name": "symbol",
      "outputs": [
        {
          "internalType": "string",
          "name": "",
          "type": "string"
        }
      ],
      "stateMutability": "view",
      "type": "function"
    },
    {
      "inputs": [
        {
          "internalType": "uint256",
          "name": "index",
          "type": "uint256"
        }
      ],
      "name": "tokenByIndex",
      "outputs": [
        {
          "internalType": "uint256",
          "name": "",
          "type": "uint256"
        }
      ],
      "stateMutability": "view",
      "type": "function"
    },
    {
      "inputs": [
        {
          "internalType": "address",
          "name": "owner",
          "type": "address"
        },
        {
          "internalType": "uint256",
          "name": "index",
          "type": "uint256"
        }
      ],
      "name": "tokenOfOwnerByIndex",
      "outputs": [
        {
          "internalType": "uint256",
          "name": "",
          "type": "uint256"
        }
      ],
      "stateMutability": "view",
      "type": "function"
    },
    {
      "inputs": [
        {
          "internalType": "uint256",
          "name": "tokenId",
          "type": "uint256"
        }
      ],
      "name": "tokenURI",
      "outputs": [
        {
          "internalType": "string",
          "name": "",
          "type": "string"
        }
      ],
      "stateMutability": "view",
      "type": "function"
    },
    {
      "inputs": [],
      "name": "totalSupply",
      "outputs": [
        {
          "internalType": "uint256",
          "name": "",
          "type": "uint256"
        }
      ],
      "stateMutability": "view",
      "type": "function"
    },
    {
      "inputs": [
        {
          "internalType": "address",
          "name": "from",
          "type": "address"
        },
        {
          "internalType": "address",
          "name": "to",
          "type": "address"
        },
        {
          "internalType": "uint256",
          "name": "tokenId",
          "type": "uint256"
        }
      ],
      "name": "transferFrom",
      "outputs": [],
      "stateMutability": "nonpayable",
      "type": "function"
    },
    {
      "inputs": [
        {
          "internalType": "address",
          "name": "newOwner",
          "type": "address"
        }
      ],
      "name": "transferOwnership",
      "outputs": [],
      "stateMutability": "nonpayable",
      "type": "function"
    },
    {
      "inputs": [
        {
          "internalType": "uint256",
          "name": "_tokenId",
          "type": "uint256"
        }
      ],
      "name": "updateTokenUri",
      "outputs": [],
      "stateMutability": "nonpayable",
      "type": "function"
    }
  ],
  "bytecode": "0x60806040523480156200001157600080fd5b506040518060400160405280600c81526020017f6368617261637465724e465400000000000000000000000000000000000000008152506040518060400160405280600581526020017f434841524e000000000000000000000000000000000000000000000000000000815250816000908051906020019062000096929190620001a6565b508060019080519060200190620000af929190620001a6565b505050620000d2620000c6620000d860201b60201c565b620000e060201b60201c565b620002bb565b600033905090565b6000600b60009054906101000a900473ffffffffffffffffffffffffffffffffffffffff16905081600b60006101000a81548173ffffffffffffffffffffffffffffffffffffffff021916908373ffffffffffffffffffffffffffffffffffffffff1602179055508173ffffffffffffffffffffffffffffffffffffffff168173ffffffffffffffffffffffffffffffffffffffff167f8be0079c531659141344cd1fd0a4f28419497f9722a3daafe3b4186f6b6457e060405160405180910390a35050565b828054620001b49062000256565b90600052602060002090601f016020900481019282620001d8576000855562000224565b82601f10620001f357805160ff191683800117855562000224565b8280016001018555821562000224579182015b828111156200022357825182559160200191906001019062000206565b5b50905062000233919062000237565b5090565b5b808211156200025257600081600090555060010162000238565b5090565b600060028204905060018216806200026f57607f821691505b602082108114156200028657620002856200028c565b5b50919050565b7f4e487b7100000000000000000000000000000000000000000000000000000000600052602260045260246000fd5b614d7380620002cb6000396000f3fe608060405234801561001057600080fd5b50600436106101735760003560e01c80636352211e116100de57806395d89b4111610097578063b88d4fde11610071578063b88d4fde1461046e578063c87b56dd1461048a578063e985e9c5146104ba578063f2fde38b146104ea57610173565b806395d89b4114610404578063a22cb46514610422578063b69f08e61461043e57610173565b80636352211e146103305780636c0981811461036057806370a082311461037c578063715018a6146103ac5780638da5cb5b146103b6578063921881a8146103d457610173565b806323b872dd1161013057806323b872dd1461024c57806328c107ac146102685780632f745c591461029857806342842e0e146102c85780634f6ccce7146102e457806357771a231461031457610173565b806301ffc9a71461017857806306fdde03146101a8578063081812fc146101c6578063095ea7b3146101f65780630c94d4861461021257806318160ddd1461022e575b600080fd5b610192600480360381019061018d9190612e93565b610506565b60405161019f91906138ab565b60405180910390f35b6101b0610518565b6040516101bd91906138c6565b60405180910390f35b6101e060048036038101906101db9190612fd0565b6105aa565b6040516101ed9190613844565b60405180910390f35b610210600480360381019061020b9190612e57565b6105f0565b005b61022c60048036038101906102279190612f51565b610708565b005b61023661083f565b6040516102439190613ae8565b60405180910390f35b61026660048036038101906102619190612d51565b61084c565b005b610282600480360381019061027d9190612ee5565b6108ac565b60405161028f91906138c6565b60405180910390f35b6102b260048036038101906102ad9190612e57565b6108ef565b6040516102bf9190613ae8565b60405180910390f35b6102e260048036038101906102dd9190612d51565b610994565b005b6102fe60048036038101906102f99190612fd0565b6109b4565b60405161030b9190613ae8565b60405180910390f35b61032e60048036038101906103299190612fd0565b610a4b565b005b61034a60048036038101906103459190612fd0565b610a57565b6040516103579190613844565b60405180910390f35b61037a60048036038101906103759190612fd0565b610b09565b005b61039660048036038101906103919190612cec565b610cd2565b6040516103a39190613ae8565b60405180910390f35b6103b4610d8a565b005b6103be610d9e565b6040516103cb9190613844565b60405180910390f35b6103ee60048036038101906103e99190612ee5565b610dc8565b6040516103fb91906138c6565b60405180910390f35b61040c610e0a565b60405161041991906138c6565b60405180910390f35b61043c60048036038101906104379190612e1b565b610e9c565b005b61045860048036038101906104539190612ff9565b610eb2565b60405161046591906138c6565b60405180910390f35b61048860048036038101906104839190612da0565b610eec565b005b6104a4600480360381019061049f9190612fd0565b610f4e565b6040516104b191906138c6565b60405180910390f35b6104d460048036038101906104cf9190612d15565b610f60565b6040516104e191906138ab565b60405180910390f35b61050460048036038101906104ff9190612cec565b610ff4565b005b600061051182611078565b9050919050565b60606000805461052790613dad565b80601f016020809104026020016040519081016040528092919081815260200182805461055390613dad565b80156105a05780601f10610575576101008083540402835291602001916105a0565b820191906000526020600020905b81548152906001019060200180831161058357829003601f168201915b5050505050905090565b60006105b5826110f2565b6004600083815260200190815260200160002060009054906101000a900473ffffffffffffffffffffffffffffffffffffffff169050919050565b60006105fb82610a57565b90508073ffffffffffffffffffffffffffffffffffffffff168373ffffffffffffffffffffffffffffffffffffffff16141561066c576040517f08c379a000000000000000000000000000000000000000000000000000000000815260040161066390613a88565b60405180910390fd5b8073ffffffffffffffffffffffffffffffffffffffff1661068b61113d565b73ffffffffffffffffffffffffffffffffffffffff1614806106ba57506106b9816106b461113d565b610f60565b5b6106f9576040517f08c379a00000000000000000000000000000000000000000000000000000000081526004016106f090613a08565b60405180910390fd5b6107038383611145565b505050565b600d604051806060016040528085815260200184815260200160018152509080600181540180825580915050600190039060005260206000209060030201600090919091909150600082015181600001908051906020019061076b929190612ad0565b506020820151816001019080519060200190610788929190612ad0565b5060408201518160020155505060006107a1600c6111fe565b905060006107af85856108ac565b905060006107be600083610eb2565b90506000856040516020016107d39190613665565b604051602081830303815290604052905060006107f08383610dc8565b90506000816040516020016108059190613822565b6040516020818303038152906040529050610820878761120c565b61082a868261122a565b610834600c61129e565b505050505050505050565b6000600880549050905090565b61085d61085761113d565b826112b4565b61089c576040517f08c379a000000000000000000000000000000000000000000000000000000000815260040161089390613ac8565b60405180910390fd5b6108a7838383611349565b505050565b6060600060019050600084846108c1846115b0565b6040516020016108d393929190613687565b6040516020818303038152906040529050809250505092915050565b60006108fa83610cd2565b821061093b576040517f08c379a0000000000000000000000000000000000000000000000000000000008152600401610932906138e8565b60405180910390fd5b600660008473ffffffffffffffffffffffffffffffffffffffff1673ffffffffffffffffffffffffffffffffffffffff168152602001908152602001600020600083815260200190815260200160002054905092915050565b6109af83838360405180602001604052806000815250610eec565b505050565b60006109be61083f565b82106109ff576040517f08c379a00000000000000000000000000000000000000000000000000000000081526004016109f690613aa8565b60405180910390fd5b60088281548110610a39577f4e487b7100000000000000000000000000000000000000000000000000000000600052603260045260246000fd5b90600052602060002001549050919050565b610a548161175d565b50565b6000806002600084815260200190815260200160002060009054906101000a900473ffffffffffffffffffffffffffffffffffffffff169050600073ffffffffffffffffffffffffffffffffffffffff168173ffffffffffffffffffffffffffffffffffffffff161415610b00576040517f08c379a0000000000000000000000000000000000000000000000000000000008152600401610af790613a68565b60405180910390fd5b80915050919050565b6001600d8281548110610b45577f4e487b7100000000000000000000000000000000000000000000000000000000600052603260045260246000fd5b906000526020600020906003020160020154610b619190613be2565b600d8281548110610b9b577f4e487b7100000000000000000000000000000000000000000000000000000000600052603260045260246000fd5b9060005260206000209060030201600201819055506000610bbb82611769565b90506000610c9c82600d8581548110610bfd577f4e487b7100000000000000000000000000000000000000000000000000000000600052603260045260246000fd5b90600052602060002090600302016000018054610c1990613dad565b80601f0160208091040260200160405190810160405280929190818152602001828054610c4590613dad565b8015610c925780601f10610c6757610100808354040283529160200191610c92565b820191906000526020600020905b815481529060010190602001808311610c7557829003601f168201915b5050505050610dc8565b9050600081604051602001610cb19190613822565b6040516020818303038152906040529050610ccc848261122a565b50505050565b60008073ffffffffffffffffffffffffffffffffffffffff168273ffffffffffffffffffffffffffffffffffffffff161415610d43576040517f08c379a0000000000000000000000000000000000000000000000000000000008152600401610d3a906139c8565b60405180910390fd5b600360008373ffffffffffffffffffffffffffffffffffffffff1673ffffffffffffffffffffffffffffffffffffffff168152602001908152602001600020549050919050565b610d926118ea565b610d9c6000611968565b565b6000600b60009054906101000a900473ffffffffffffffffffffffffffffffffffffffff16905090565b60606000610dfe83610dd986611a2e565b604051602001610dea9291906137dd565b604051602081830303815290604052611a2e565b90508091505092915050565b606060018054610e1990613dad565b80601f0160208091040260200160405190810160405280929190818152602001828054610e4590613dad565b8015610e925780601f10610e6757610100808354040283529160200191610e92565b820191906000526020600020905b815481529060010190602001808311610e7557829003601f168201915b5050505050905090565b610eae610ea761113d565b8383611bb8565b5050565b6060600082610ec0856115b0565b604051602001610ed1929190613620565b60405160208183030381529060405290508091505092915050565b610efd610ef761113d565b836112b4565b610f3c576040517f08c379a0000000000000000000000000000000000000000000000000000000008152600401610f3390613ac8565b60405180910390fd5b610f4884848484611d25565b50505050565b6060610f5982611d81565b9050919050565b6000600560008473ffffffffffffffffffffffffffffffffffffffff1673ffffffffffffffffffffffffffffffffffffffff16815260200190815260200160002060008373ffffffffffffffffffffffffffffffffffffffff1673ffffffffffffffffffffffffffffffffffffffff16815260200190815260200160002060009054906101000a900460ff16905092915050565b610ffc6118ea565b600073ffffffffffffffffffffffffffffffffffffffff168173ffffffffffffffffffffffffffffffffffffffff16141561106c576040517f08c379a000000000000000000000000000000000000000000000000000000000815260040161106390613928565b60405180910390fd5b61107581611968565b50565b60007f780e9d63000000000000000000000000000000000000000000000000000000007bffffffffffffffffffffffffffffffffffffffffffffffffffffffff1916827bffffffffffffffffffffffffffffffffffffffffffffffffffffffff191614806110eb57506110ea82611e94565b5b9050919050565b6110fb81611f76565b61113a576040517f08c379a000000000000000000000000000000000000000000000000000000000815260040161113190613a68565b60405180910390fd5b50565b600033905090565b816004600083815260200190815260200160002060006101000a81548173ffffffffffffffffffffffffffffffffffffffff021916908373ffffffffffffffffffffffffffffffffffffffff160217905550808273ffffffffffffffffffffffffffffffffffffffff166111b883610a57565b73ffffffffffffffffffffffffffffffffffffffff167f8c5be1e5ebec7d5bd14f71427d1e84f3dd0314c0f7b2291e5b200ac8c7c3b92560405160405180910390a45050565b600081600001549050919050565b611226828260405180602001604052806000815250611fe2565b5050565b61123382611f76565b611272576040517f08c379a0000000000000000000000000000000000000000000000000000000008152600401611269906139e8565b60405180910390fd5b80600a60008481526020019081526020016000209080519060200190611299929190612ad0565b505050565b6001816000016000828254019250508190555050565b6000806112c083610a57565b90508073ffffffffffffffffffffffffffffffffffffffff168473ffffffffffffffffffffffffffffffffffffffff16148061130257506113018185610f60565b5b8061134057508373ffffffffffffffffffffffffffffffffffffffff16611328846105aa565b73ffffffffffffffffffffffffffffffffffffffff16145b91505092915050565b8273ffffffffffffffffffffffffffffffffffffffff1661136982610a57565b73ffffffffffffffffffffffffffffffffffffffff16146113bf576040517f08c379a00000000000000000000000000000000000000000000000000000000081526004016113b690613948565b60405180910390fd5b600073ffffffffffffffffffffffffffffffffffffffff168273ffffffffffffffffffffffffffffffffffffffff16141561142f576040517f08c379a000000000000000000000000000000000000000000000000000000000815260040161142690613988565b60405180910390fd5b61143a83838361203d565b611445600082611145565b6001600360008573ffffffffffffffffffffffffffffffffffffffff1673ffffffffffffffffffffffffffffffffffffffff16815260200190815260200160002060008282546114959190613cc3565b925050819055506001600360008473ffffffffffffffffffffffffffffffffffffffff1673ffffffffffffffffffffffffffffffffffffffff16815260200190815260200160002060008282546114ec9190613be2565b92505081905550816002600083815260200190815260200160002060006101000a81548173ffffffffffffffffffffffffffffffffffffffff021916908373ffffffffffffffffffffffffffffffffffffffff160217905550808273ffffffffffffffffffffffffffffffffffffffff168473ffffffffffffffffffffffffffffffffffffffff167fddf252ad1be2c89b69c2b068fc378daa952ba7f163c4a11628f55a4df523b3ef60405160405180910390a46115ab83838361204d565b505050565b606060008214156115f8576040518060400160405280600181526020017f30000000000000000000000000000000000000000000000000000000000000008152509050611758565b600082905060005b6000821461162a57808061161390613e10565b915050600a826116239190613c38565b9150611600565b60008167ffffffffffffffff81111561166c577f4e487b7100000000000000000000000000000000000000000000000000000000600052604160045260246000fd5b6040519080825280601f01601f19166020018201604052801561169e5781602001600182028036833780820191505090505b5090505b60008514611751576001826116b79190613cc3565b9150600a856116c69190613e59565b60306116d29190613be2565b60f81b81838151811061170e577f4e487b7100000000000000000000000000000000000000000000000000000000600052603260045260246000fd5b60200101907effffffffffffffffffffffffffffffffffffffffffffffffffffffffffffff1916908160001a905350600a8561174a9190613c38565b94506116a2565b8093505050505b919050565b61176681612052565b50565b606060006002600d84815481106117a9577f4e487b7100000000000000000000000000000000000000000000000000000000600052603260045260246000fd5b9060005260206000209060030201600201546117c59190613c38565b90506000600d8481548110611803577f4e487b7100000000000000000000000000000000000000000000000000000000600052603260045260246000fd5b9060005260206000209060030201600101600d858154811061184e577f4e487b7100000000000000000000000000000000000000000000000000000000600052603260045260246000fd5b90600052602060002090600302016000016118b3600d878154811061189c577f4e487b7100000000000000000000000000000000000000000000000000000000600052603260045260246000fd5b9060005260206000209060030201600201546115b0565b6118bc856115b0565b6040516020016118cf949392919061371b565b60405160208183030381529060405290508092505050919050565b6118f261113d565b73ffffffffffffffffffffffffffffffffffffffff16611910610d9e565b73ffffffffffffffffffffffffffffffffffffffff1614611966576040517f08c379a000000000000000000000000000000000000000000000000000000000815260040161195d90613a48565b60405180910390fd5b565b6000600b60009054906101000a900473ffffffffffffffffffffffffffffffffffffffff16905081600b60006101000a81548173ffffffffffffffffffffffffffffffffffffffff021916908373ffffffffffffffffffffffffffffffffffffffff1602179055508173ffffffffffffffffffffffffffffffffffffffff168173ffffffffffffffffffffffffffffffffffffffff167f8be0079c531659141344cd1fd0a4f28419497f9722a3daafe3b4186f6b6457e060405160405180910390a35050565b6060600082511415611a5157604051806020016040528060008152509050611bb3565b6000604051806060016040528060408152602001614cfe6040913990506000600360028551611a809190613be2565b611a8a9190613c38565b6004611a969190613c69565b67ffffffffffffffff811115611ad5577f4e487b7100000000000000000000000000000000000000000000000000000000600052604160045260246000fd5b6040519080825280601f01601f191660200182016040528015611b075781602001600182028036833780820191505090505b509050600182016020820185865187015b80821015611b73576003820191508151603f8160121c168501518453600184019350603f81600c1c168501518453600184019350603f8160061c168501518453600184019350603f8116850151845360018401935050611b18565b5050600386510660018114611b8f5760028114611ba257611baa565b603d6001830353603d6002830353611baa565b603d60018303535b50505080925050505b919050565b8173ffffffffffffffffffffffffffffffffffffffff168373ffffffffffffffffffffffffffffffffffffffff161415611c27576040517f08c379a0000000000000000000000000000000000000000000000000000000008152600401611c1e906139a8565b60405180910390fd5b80600560008573ffffffffffffffffffffffffffffffffffffffff1673ffffffffffffffffffffffffffffffffffffffff16815260200190815260200160002060008473ffffffffffffffffffffffffffffffffffffffff1673ffffffffffffffffffffffffffffffffffffffff16815260200190815260200160002060006101000a81548160ff0219169083151502179055508173ffffffffffffffffffffffffffffffffffffffff168373ffffffffffffffffffffffffffffffffffffffff167f17307eab39ab6107e8899845ad3d59bd9653f200f220920489ca2b5937696c3183604051611d1891906138ab565b60405180910390a3505050565b611d30848484611349565b611d3c848484846120a5565b611d7b576040517f08c379a0000000000000000000000000000000000000000000000000000000008152600401611d7290613908565b60405180910390fd5b50505050565b6060611d8c826110f2565b6000600a60008481526020019081526020016000208054611dac90613dad565b80601f0160208091040260200160405190810160405280929190818152602001828054611dd890613dad565b8015611e255780601f10611dfa57610100808354040283529160200191611e25565b820191906000526020600020905b815481529060010190602001808311611e0857829003601f168201915b505050505090506000611e3661223c565b9050600081511415611e4c578192505050611e8f565b600082511115611e81578082604051602001611e699291906135fc565b60405160208183030381529060405292505050611e8f565b611e8a84612253565b925050505b919050565b60007f80ac58cd000000000000000000000000000000000000000000000000000000007bffffffffffffffffffffffffffffffffffffffffffffffffffffffff1916827bffffffffffffffffffffffffffffffffffffffffffffffffffffffff19161480611f5f57507f5b5e139f000000000000000000000000000000000000000000000000000000007bffffffffffffffffffffffffffffffffffffffffffffffffffffffff1916827bffffffffffffffffffffffffffffffffffffffffffffffffffffffff1916145b80611f6f5750611f6e826122bb565b5b9050919050565b60008073ffffffffffffffffffffffffffffffffffffffff166002600084815260200190815260200160002060009054906101000a900473ffffffffffffffffffffffffffffffffffffffff1673ffffffffffffffffffffffffffffffffffffffff1614159050919050565b611fec8383612325565b611ff960008484846120a5565b612038576040517f08c379a000000000000000000000000000000000000000000000000000000000815260040161202f90613908565b60405180910390fd5b505050565b6120488383836124ff565b505050565b505050565b61205b81612613565b6000600a6000838152602001908152602001600020805461207b90613dad565b9050146120a257600a600082815260200190815260200160002060006120a19190612b56565b5b50565b60006120c68473ffffffffffffffffffffffffffffffffffffffff16612730565b1561222f578373ffffffffffffffffffffffffffffffffffffffff1663150b7a026120ef61113d565b8786866040518563ffffffff1660e01b8152600401612111949392919061385f565b602060405180830381600087803b15801561212b57600080fd5b505af192505050801561215c57506040513d601f19601f820116820180604052508101906121599190612ebc565b60015b6121df573d806000811461218c576040519150601f19603f3d011682016040523d82523d6000602084013e612191565b606091505b506000815114156121d7576040517f08c379a00000000000000000000000000000000000000000000000000000000081526004016121ce90613908565b60405180910390fd5b805181602001fd5b63150b7a0260e01b7bffffffffffffffffffffffffffffffffffffffffffffffffffffffff1916817bffffffffffffffffffffffffffffffffffffffffffffffffffffffff191614915050612234565b600190505b949350505050565b606060405180602001604052806000815250905090565b606061225e826110f2565b600061226861223c565b9050600081511161228857604051806020016040528060008152506122b3565b80612292846115b0565b6040516020016122a39291906135fc565b6040516020818303038152906040525b915050919050565b60007f01ffc9a7000000000000000000000000000000000000000000000000000000007bffffffffffffffffffffffffffffffffffffffffffffffffffffffff1916827bffffffffffffffffffffffffffffffffffffffffffffffffffffffff1916149050919050565b600073ffffffffffffffffffffffffffffffffffffffff168273ffffffffffffffffffffffffffffffffffffffff161415612395576040517f08c379a000000000000000000000000000000000000000000000000000000000815260040161238c90613a28565b60405180910390fd5b61239e81611f76565b156123de576040517f08c379a00000000000000000000000000000000000000000000000000000000081526004016123d590613968565b60405180910390fd5b6123ea6000838361203d565b6001600360008473ffffffffffffffffffffffffffffffffffffffff1673ffffffffffffffffffffffffffffffffffffffff168152602001908152602001600020600082825461243a9190613be2565b92505081905550816002600083815260200190815260200160002060006101000a81548173ffffffffffffffffffffffffffffffffffffffff021916908373ffffffffffffffffffffffffffffffffffffffff160217905550808273ffffffffffffffffffffffffffffffffffffffff16600073ffffffffffffffffffffffffffffffffffffffff167fddf252ad1be2c89b69c2b068fc378daa952ba7f163c4a11628f55a4df523b3ef60405160405180910390a46124fb6000838361204d565b5050565b61250a838383612753565b600073ffffffffffffffffffffffffffffffffffffffff168373ffffffffffffffffffffffffffffffffffffffff16141561254d5761254881612758565b61258c565b8173ffffffffffffffffffffffffffffffffffffffff168373ffffffffffffffffffffffffffffffffffffffff161461258b5761258a83826127a1565b5b5b600073ffffffffffffffffffffffffffffffffffffffff168273ffffffffffffffffffffffffffffffffffffffff1614156125cf576125ca8161290e565b61260e565b8273ffffffffffffffffffffffffffffffffffffffff168273ffffffffffffffffffffffffffffffffffffffff161461260d5761260c8282612a51565b5b5b505050565b600061261e82610a57565b905061262c8160008461203d565b612637600083611145565b6001600360008373ffffffffffffffffffffffffffffffffffffffff1673ffffffffffffffffffffffffffffffffffffffff16815260200190815260200160002060008282546126879190613cc3565b925050819055506002600083815260200190815260200160002060006101000a81549073ffffffffffffffffffffffffffffffffffffffff021916905581600073ffffffffffffffffffffffffffffffffffffffff168273ffffffffffffffffffffffffffffffffffffffff167fddf252ad1be2c89b69c2b068fc378daa952ba7f163c4a11628f55a4df523b3ef60405160405180910390a461272c8160008461204d565b5050565b6000808273ffffffffffffffffffffffffffffffffffffffff163b119050919050565b505050565b6008805490506009600083815260200190815260200160002081905550600881908060018154018082558091505060019003906000526020600020016000909190919091505550565b600060016127ae84610cd2565b6127b89190613cc3565b905060006007600084815260200190815260200160002054905081811461289d576000600660008673ffffffffffffffffffffffffffffffffffffffff1673ffffffffffffffffffffffffffffffffffffffff168152602001908152602001600020600084815260200190815260200160002054905080600660008773ffffffffffffffffffffffffffffffffffffffff1673ffffffffffffffffffffffffffffffffffffffff168152602001908152602001600020600084815260200190815260200160002081905550816007600083815260200190815260200160002081905550505b6007600084815260200190815260200160002060009055600660008573ffffffffffffffffffffffffffffffffffffffff1673ffffffffffffffffffffffffffffffffffffffff16815260200190815260200160002060008381526020019081526020016000206000905550505050565b600060016008805490506129229190613cc3565b9050600060096000848152602001908152602001600020549050600060088381548110612978577f4e487b7100000000000000000000000000000000000000000000000000000000600052603260045260246000fd5b9060005260206000200154905080600883815481106129c0577f4e487b7100000000000000000000000000000000000000000000000000000000600052603260045260246000fd5b906000526020600020018190555081600960008381526020019081526020016000208190555060096000858152602001908152602001600020600090556008805480612a35577f4e487b7100000000000000000000000000000000000000000000000000000000600052603160045260246000fd5b6001900381819060005260206000200160009055905550505050565b6000612a5c83610cd2565b905081600660008573ffffffffffffffffffffffffffffffffffffffff1673ffffffffffffffffffffffffffffffffffffffff168152602001908152602001600020600083815260200190815260200160002081905550806007600084815260200190815260200160002081905550505050565b828054612adc90613dad565b90600052602060002090601f016020900481019282612afe5760008555612b45565b82601f10612b1757805160ff1916838001178555612b45565b82800160010185558215612b45579182015b82811115612b44578251825591602001919060010190612b29565b5b509050612b529190612b96565b5090565b508054612b6290613dad565b6000825580601f10612b745750612b93565b601f016020900490600052602060002090810190612b929190612b96565b5b50565b5b80821115612baf576000816000905550600101612b97565b5090565b6000612bc6612bc184613b28565b613b03565b905082815260208101848484011115612bde57600080fd5b612be9848285613d6b565b509392505050565b6000612c04612bff84613b59565b613b03565b905082815260208101848484011115612c1c57600080fd5b612c27848285613d6b565b509392505050565b600081359050612c3e81614ca1565b92915050565b600081359050612c5381614cb8565b92915050565b600081359050612c6881614ccf565b92915050565b600081519050612c7d81614ccf565b92915050565b600082601f830112612c9457600080fd5b8135612ca4848260208601612bb3565b91505092915050565b600082601f830112612cbe57600080fd5b8135612cce848260208601612bf1565b91505092915050565b600081359050612ce681614ce6565b92915050565b600060208284031215612cfe57600080fd5b6000612d0c84828501612c2f565b91505092915050565b60008060408385031215612d2857600080fd5b6000612d3685828601612c2f565b9250506020612d4785828601612c2f565b9150509250929050565b600080600060608486031215612d6657600080fd5b6000612d7486828701612c2f565b9350506020612d8586828701612c2f565b9250506040612d9686828701612cd7565b9150509250925092565b60008060008060808587031215612db657600080fd5b6000612dc487828801612c2f565b9450506020612dd587828801612c2f565b9350506040612de687828801612cd7565b925050606085013567ffffffffffffffff811115612e0357600080fd5b612e0f87828801612c83565b91505092959194509250565b60008060408385031215612e2e57600080fd5b6000612e3c85828601612c2f565b9250506020612e4d85828601612c44565b9150509250929050565b60008060408385031215612e6a57600080fd5b6000612e7885828601612c2f565b9250506020612e8985828601612cd7565b9150509250929050565b600060208284031215612ea557600080fd5b6000612eb384828501612c59565b91505092915050565b600060208284031215612ece57600080fd5b6000612edc84828501612c6e565b91505092915050565b60008060408385031215612ef857600080fd5b600083013567ffffffffffffffff811115612f1257600080fd5b612f1e85828601612cad565b925050602083013567ffffffffffffffff811115612f3b57600080fd5b612f4785828601612cad565b9150509250929050565b600080600060608486031215612f6657600080fd5b600084013567ffffffffffffffff811115612f8057600080fd5b612f8c86828701612cad565b935050602084013567ffffffffffffffff811115612fa957600080fd5b612fb586828701612cad565b9250506040612fc686828701612c2f565b9150509250925092565b600060208284031215612fe257600080fd5b6000612ff084828501612cd7565b91505092915050565b6000806040838503121561300c57600080fd5b600061301a85828601612cd7565b925050602083013567ffffffffffffffff81111561303757600080fd5b61304385828601612cad565b9150509250929050565b61305681613cf7565b82525050565b61306581613d09565b82525050565b600061307682613b9f565b6130808185613bb5565b9350613090818560208601613d7a565b61309981613f46565b840191505092915050565b60006130af82613baa565b6130b98185613bc6565b93506130c9818560208601613d7a565b6130d281613f46565b840191505092915050565b60006130e882613baa565b6130f28185613bd7565b9350613102818560208601613d7a565b80840191505092915050565b6000815461311b81613dad565b6131258186613bd7565b94506001821660008114613140576001811461315157613184565b60ff19831686528186019350613184565b61315a85613b8a565b60005b8381101561317c5781548189015260018201915060208101905061315d565b838801955050505b50505092915050565b600061319a60b383613bd7565b91506131a582613f57565b60b382019050919050565b60006131bd60ac83613bd7565b91506131c88261403e565b60ac82019050919050565b60006131e0602b83613bc6565b91506131eb82614125565b604082019050919050565b600061320360bd83613bd7565b915061320e82614174565b60bd82019050919050565b6000613226603283613bc6565b91506132318261425b565b604082019050919050565b6000613249609483613bd7565b9150613254826142aa565b609482019050919050565b600061326c602683613bc6565b91506132778261436b565b604082019050919050565b600061328f602583613bc6565b915061329a826143ba565b604082019050919050565b60006132b2601c83613bc6565b91506132bd82614409565b602082019050919050565b60006132d5605f83613bd7565b91506132e082614432565b605f82019050919050565b60006132f8602483613bc6565b9150613303826144a7565b604082019050919050565b600061331b601983613bc6565b9150613326826144f6565b602082019050919050565b600061333e601183613bd7565b91506133498261451f565b601182019050919050565b600061336160c183613bd7565b915061336c82614548565b60c182019050919050565b6000613384602983613bc6565b915061338f82614655565b604082019050919050565b60006133a7606a83613bd7565b91506133b2826146a4565b606a82019050919050565b60006133ca602e83613bc6565b91506133d58261473f565b604082019050919050565b60006133ed60c183613bd7565b91506133f88261478e565b60c182019050919050565b6000613410600283613bd7565b915061341b8261489b565b600282019050919050565b6000613433600783613bd7565b915061343e826148c4565b600782019050919050565b6000613456603e83613bc6565b9150613461826148ed565b604082019050919050565b6000613479602083613bc6565b91506134848261493c565b602082019050919050565b600061349c605183613bd7565b91506134a782614965565b605182019050919050565b60006134bf602083613bc6565b91506134ca826149da565b602082019050919050565b60006134e2600a83613bd7565b91506134ed82614a03565b600a82019050919050565b6000613505601883613bc6565b915061351082614a2c565b602082019050919050565b6000613528602183613bc6565b915061353382614a55565b604082019050919050565b600061354b60c183613bd7565b915061355682614aa4565b60c182019050919050565b600061356e601d83613bd7565b915061357982614bb1565b601d82019050919050565b6000613591602c83613bc6565b915061359c82614bda565b604082019050919050565b60006135b4602e83613bc6565b91506135bf82614c29565b604082019050919050565b60006135d7600683613bd7565b91506135e282614c78565b600682019050919050565b6135f681613d61565b82525050565b600061360882856130dd565b915061361482846130dd565b91508190509392505050565b600061362c82856130dd565b9150613637826131f6565b915061364382846130dd565b915061364e82613426565b9150613659826135ca565b91508190509392505050565b600061367182846130dd565b915061367c82613331565b915081905092915050565b6000613692826132c8565b915061369d8261323c565b91506136a88261339a565b91506136b3826131b0565b91506136bf82866130dd565b91506136ca82613426565b91506136d5826133e0565b91506136e182856130dd565b91506136ec82613426565b91506136f78261353e565b915061370382846130dd565b915061370e82613426565b9150819050949350505050565b6000613726826132c8565b91506137318261323c565b915061373c8261339a565b9150613747826131b0565b9150613753828761310e565b915061375e82613426565b915061376982613354565b9150613775828661310e565b915061378082613426565b915061378b8261353e565b915061379782856130dd565b91506137a282613426565b91506137ad8261318d565b91506137b982846130dd565b91506137c482613426565b91506137cf826135ca565b915081905095945050505050565b60006137e8826134d5565b91506137f482856130dd565b91506137ff8261348f565b915061380b82846130dd565b915061381682613403565b91508190509392505050565b600061382d82613561565b915061383982846130dd565b915081905092915050565b6000602082019050613859600083018461304d565b92915050565b6000608082019050613874600083018761304d565b613881602083018661304d565b61388e60408301856135ed565b81810360608301526138a0818461306b565b905095945050505050565b60006020820190506138c0600083018461305c565b92915050565b600060208201905081810360008301526138e081846130a4565b905092915050565b60006020820190508181036000830152613901816131d3565b9050919050565b6000602082019050818103600083015261392181613219565b9050919050565b600060208201905081810360008301526139418161325f565b9050919050565b6000602082019050818103600083015261396181613282565b9050919050565b60006020820190508181036000830152613981816132a5565b9050919050565b600060208201905081810360008301526139a1816132eb565b9050919050565b600060208201905081810360008301526139c18161330e565b9050919050565b600060208201905081810360008301526139e181613377565b9050919050565b60006020820190508181036000830152613a01816133bd565b9050919050565b60006020820190508181036000830152613a2181613449565b9050919050565b60006020820190508181036000830152613a418161346c565b9050919050565b60006020820190508181036000830152613a61816134b2565b9050919050565b60006020820190508181036000830152613a81816134f8565b9050919050565b60006020820190508181036000830152613aa18161351b565b9050919050565b60006020820190508181036000830152613ac181613584565b9050919050565b60006020820190508181036000830152613ae1816135a7565b9050919050565b6000602082019050613afd60008301846135ed565b92915050565b6000613b0d613b1e565b9050613b198282613ddf565b919050565b6000604051905090565b600067ffffffffffffffff821115613b4357613b42613f17565b5b613b4c82613f46565b9050602081019050919050565b600067ffffffffffffffff821115613b7457613b73613f17565b5b613b7d82613f46565b9050602081019050919050565b60008190508160005260206000209050919050565b600081519050919050565b600081519050919050565b600082825260208201905092915050565b600082825260208201905092915050565b600081905092915050565b6000613bed82613d61565b9150613bf883613d61565b9250827fffffffffffffffffffffffffffffffffffffffffffffffffffffffffffffffff03821115613c2d57613c2c613e8a565b5b828201905092915050565b6000613c4382613d61565b9150613c4e83613d61565b925082613c5e57613c5d613eb9565b5b828204905092915050565b6000613c7482613d61565b9150613c7f83613d61565b9250817fffffffffffffffffffffffffffffffffffffffffffffffffffffffffffffffff0483118215151615613cb857613cb7613e8a565b5b828202905092915050565b6000613cce82613d61565b9150613cd983613d61565b925082821015613cec57613ceb613e8a565b5b828203905092915050565b6000613d0282613d41565b9050919050565b60008115159050919050565b60007fffffffff0000000000000000000000000000000000000000000000000000000082169050919050565b600073ffffffffffffffffffffffffffffffffffffffff82169050919050565b6000819050919050565b82818337600083830152505050565b60005b83811015613d98578082015181840152602081019050613d7d565b83811115613da7576000848401525b50505050565b60006002820490506001821680613dc557607f821691505b60208210811415613dd957613dd8613ee8565b5b50919050565b613de882613f46565b810181811067ffffffffffffffff82111715613e0757613e06613f17565b5b80604052505050565b6000613e1b82613d61565b91507fffffffffffffffffffffffffffffffffffffffffffffffffffffffffffffffff821415613e4e57613e4d613e8a565b5b600182019050919050565b6000613e6482613d61565b9150613e6f83613d61565b925082613e7f57613e7e613eb9565b5b828206905092915050565b7f4e487b7100000000000000000000000000000000000000000000000000000000600052601160045260246000fd5b7f4e487b7100000000000000000000000000000000000000000000000000000000600052601260045260246000fd5b7f4e487b7100000000000000000000000000000000000000000000000000000000600052602260045260246000fd5b7f4e487b7100000000000000000000000000000000000000000000000000000000600052604160045260246000fd5b6000601f19601f8301169050919050565b7f3c7465787420786d6c3a73706163653d2270726573657276652220746578742d60008201527f616e63686f723d2273746172742220666f6e742d66616d696c793d224e6f746f60208201527f2053616e73204a502220666f6e742d73697a653d223234222069643d2273766760408201527f5f322220793d223130342e33373234362220783d2234352e303031343722207360608201527f74726f6b652d77696474683d223022207374726f6b653d22233030302220666960808201527f6c6c3d2223303030303030223e4c6576656c3a0000000000000000000000000060a082015250565b7f3c7465787420786d6c3a73706163653d2270726573657276652220746578742d60008201527f616e63686f723d2273746172742220666f6e742d66616d696c793d224e6f746f60208201527f2053616e73204a502220666f6e742d73697a653d223234222069643d2273766760408201527f5f312220793d2237312e31393231382220783d2234352e30363432362220737460608201527f726f6b652d77696474683d223022207374726f6b653d2223303030222066696c60808201527f6c3d2223303030303030223e000000000000000000000000000000000000000060a082015250565b7f455243373231456e756d657261626c653a206f776e657220696e646578206f7560008201527f74206f6620626f756e6473000000000000000000000000000000000000000000602082015250565b7f3c7465787420786d6c3a73706163653d2270726573657276652220746578742d60008201527f616e63686f723d2273746172742220666f6e742d66616d696c793d224e6f746f60208201527f2053616e73204a502220666f6e742d73697a653d223234222069643d2273766760408201527f5f322220793d223130342e33373234362220783d2234352e303031343722207360608201527f74726f6b652d77696474683d223022207374726f6b653d22233030302220666960808201527f6c6c3d2223303030303030223e436861726163746572204c6576656c3a00000060a082015250565b7f4552433732313a207472616e7366657220746f206e6f6e20455243373231526560008201527f63656976657220696d706c656d656e7465720000000000000000000000000000602082015250565b7f3c70617468207472616e73666f726d3d22726f74617465283930203234302e3860008201527f32382034352e3937353229222069643d227376675f382220643d226d3234312e60208201527f34393135322c2d3139342e32353030356c2d312e33323732312c3438302e343560408201527f30343422206f7061636974793d22756e646566696e656422207374726f6b653d60608201527f2223303030222066696c6c3d226e6f6e65222f3e000000000000000000000000608082015250565b7f4f776e61626c653a206e6577206f776e657220697320746865207a65726f206160008201527f6464726573730000000000000000000000000000000000000000000000000000602082015250565b7f4552433732313a207472616e736665722066726f6d20696e636f72726563742060008201527f6f776e6572000000000000000000000000000000000000000000000000000000602082015250565b7f4552433732313a20746f6b656e20616c7265616479206d696e74656400000000600082015250565b7f3c7376672077696474683d223437392e3939393939393939393939393934222060008201527f6865696768743d223437392e39393939393939393939393939342220786d6c6e60208201527f733d22687474703a2f2f7777772e77332e6f72672f323030302f737667223e00604082015250565b7f4552433732313a207472616e7366657220746f20746865207a65726f2061646460008201527f7265737300000000000000000000000000000000000000000000000000000000602082015250565b7f4552433732313a20617070726f766520746f2063616c6c657200000000000000600082015250565b7f2773204368617261637465722043617264000000000000000000000000000000600082015250565b7f3c7465787420786d6c3a73706163653d2270726573657276652220746578742d60008201527f616e63686f723d2273746172742220666f6e742d66616d696c793d224e6f746f60208201527f2053616e73204a502220666f6e742d73697a653d223234222069643d2273766760408201527f5f332220793d223133372e313838382220783d2234352e30363432362220737460608201527f726f6b652d77696474683d223022207374726f6b653d2223303030222066696c60808201527f6c3d2223303030303030223e57617272616e747920686f6c646572206e616d6560a08201527f3a0000000000000000000000000000000000000000000000000000000000000060c082015250565b7f4552433732313a2061646472657373207a65726f206973206e6f74206120766160008201527f6c6964206f776e65720000000000000000000000000000000000000000000000602082015250565b7f3c706174682069643d227376675f392220643d226d34312e30383236332c2d3160008201527f2e38303434336c2d312e33323732312c3438302e343530343422206f7061636960208201527f74793d22756e646566696e656422207374726f6b653d2223303030222066696c60408201527f6c3d226e6f6e65222f3e00000000000000000000000000000000000000000000606082015250565b7f45524337323155524953746f726167653a2055524920736574206f66206e6f6e60008201527f6578697374656e7420746f6b656e000000000000000000000000000000000000602082015250565b7f3c7465787420786d6c3a73706163653d2270726573657276652220746578742d60008201527f616e63686f723d2273746172742220666f6e742d66616d696c793d224e6f746f60208201527f2053616e73204a502220666f6e742d73697a653d223234222069643d2273766760408201527f5f332220793d223133372e313838382220783d2234352e30363432362220737460608201527f726f6b652d77696474683d223022207374726f6b653d2223303030222066696c60808201527f6c3d2223303030303030223e57617272616e747920486f6c646572204e616d6560a08201527f3a0000000000000000000000000000000000000000000000000000000000000060c082015250565b7f227d000000000000000000000000000000000000000000000000000000000000600082015250565b7f3c2f746578743e00000000000000000000000000000000000000000000000000600082015250565b7f4552433732313a20617070726f76652063616c6c6572206973206e6f7420746f60008201527f6b656e206f776e6572206e6f7220617070726f76656420666f7220616c6c0000602082015250565b7f4552433732313a206d696e7420746f20746865207a65726f2061646472657373600082015250565b7f222c20226465736372697074696f6e223a2022596f7572206f776e206368617260008201527f6163746572204e465422202c2022696d616765223a2022646174613a696d616760208201527f652f7376672b786d6c3b6261736536342c000000000000000000000000000000604082015250565b7f4f776e61626c653a2063616c6c6572206973206e6f7420746865206f776e6572600082015250565b7f7b226e616d65223a202200000000000000000000000000000000000000000000600082015250565b7f4552433732313a20696e76616c696420746f6b656e2049440000000000000000600082015250565b7f4552433732313a20617070726f76616c20746f2063757272656e74206f776e6560008201527f7200000000000000000000000000000000000000000000000000000000000000602082015250565b7f3c7465787420786d6c3a73706163653d2270726573657276652220746578742d60008201527f616e63686f723d2273746172742220666f6e742d66616d696c793d224e6f746f60208201527f2053616e73204a502220666f6e742d73697a653d223234222069643d2273766760408201527f5f362220793d223137302e30323238362220783d2234352e303036363122207360608201527f74726f6b652d77696474683d223022207374726f6b653d22233030302220666960808201527f6c6c3d2223303030303030223e50726f64756374735f7265676973746572656460a08201527f3a0000000000000000000000000000000000000000000000000000000000000060c082015250565b7f646174613a6170706c69636174696f6e2f6a736f6e3b6261736536342c000000600082015250565b7f455243373231456e756d657261626c653a20676c6f62616c20696e646578206f60008201527f7574206f6620626f756e64730000000000000000000000000000000000000000602082015250565b7f4552433732313a2063616c6c6572206973206e6f7420746f6b656e206f776e6560008201527f72206e6f7220617070726f766564000000000000000000000000000000000000602082015250565b7f3c2f7376673e0000000000000000000000000000000000000000000000000000600082015250565b614caa81613cf7565b8114614cb557600080fd5b50565b614cc181613d09565b8114614ccc57600080fd5b50565b614cd881613d15565b8114614ce357600080fd5b50565b614cef81613d61565b8114614cfa57600080fd5b5056fe4142434445464748494a4b4c4d4e4f505152535455565758595a6162636465666768696a6b6c6d6e6f707172737475767778797a303132333435363738392b2fa2646970667358221220c881487bb8753262b222450512d64cce518fc7b222537fde885b9f71e43c10ab64736f6c63430008040033",
  "linkReferences": {},
  "deployedLinkReferences": {}
}