{
  "_format": "hh-sol-artifact-1",
  "contractName": "WarrantyNFT",
  "sourceName": "contracts/WarrantyNFT.sol",
  "abi": [
    {
      "inputs": [],
      "stateMutability": "nonpayable",
      "type": "constructor"
    },
    {
      "anonymous": false,
      "inputs": [
        {
          "indexed": true,
          "internalType": "address",
          "name": "owner",
          "type": "address"
        },
        {
          "indexed": true,
          "internalType": "address",
          "name": "approved",
          "type": "address"
        },
        {
          "indexed": true,
          "internalType": "uint256",
          "name": "tokenId",
          "type": "uint256"
        }
      ],
      "name": "Approval",
      "type": "event"
    },
    {
      "anonymous": false,
      "inputs": [
        {
          "indexed": true,
          "internalType": "address",
          "name": "owner",
          "type": "address"
        },
        {
          "indexed": true,
          "internalType": "address",
          "name": "operator",
          "type": "address"
        },
        {
          "indexed": false,
          "internalType": "bool",
          "name": "approved",
          "type": "bool"
        }
      ],
      "name": "ApprovalForAll",
      "type": "event"
    },
    {
      "anonymous": false,
      "inputs": [
        {
          "indexed": true,
          "internalType": "address",
          "name": "from",
          "type": "address"
        },
        {
          "indexed": true,
          "internalType": "address",
          "name": "to",
          "type": "address"
        },
        {
          "indexed": true,
          "internalType": "uint256",
          "name": "tokenId",
          "type": "uint256"
        }
      ],
      "name": "Transfer",
      "type": "event"
    },
    {
      "inputs": [
        {
          "internalType": "address",
          "name": "to",
          "type": "address"
        },
        {
          "internalType": "uint256",
          "name": "tokenId",
          "type": "uint256"
        }
      ],
      "name": "approve",
      "outputs": [],
      "stateMutability": "nonpayable",
      "type": "function"
    },
    {
      "inputs": [
        {
          "internalType": "address",
          "name": "owner",
          "type": "address"
        }
      ],
      "name": "balanceOf",
      "outputs": [
        {
          "internalType": "uint256",
          "name": "",
          "type": "uint256"
        }
      ],
      "stateMutability": "view",
      "type": "function"
    },
    {
      "inputs": [
        {
          "internalType": "string",
          "name": "productId",
          "type": "string"
        },
        {
          "internalType": "string",
          "name": "user",
          "type": "string"
        },
        {
          "internalType": "string",
          "name": "dateRegistered",
          "type": "string"
        }
      ],
      "name": "encodeBaseImage",
      "outputs": [
        {
          "internalType": "string",
          "name": "",
          "type": "string"
        }
      ],
      "stateMutability": "view",
      "type": "function"
    },
    {
      "inputs": [
        {
          "internalType": "string",
          "name": "_svg",
          "type": "string"
        },
        {
          "internalType": "string",
          "name": "_contractName",
          "type": "string"
        }
      ],
      "name": "encodeJson",
      "outputs": [
        {
          "internalType": "string",
          "name": "",
          "type": "string"
        }
      ],
      "stateMutability": "pure",
      "type": "function"
    },
    {
      "inputs": [],
      "name": "expireNFT",
      "outputs": [],
      "stateMutability": "nonpayable",
      "type": "function"
    },
    {
      "inputs": [
        {
          "internalType": "uint256",
          "name": "tokenId",
          "type": "uint256"
        }
      ],
      "name": "getApproved",
      "outputs": [
        {
          "internalType": "address",
          "name": "",
          "type": "address"
        }
      ],
      "stateMutability": "view",
      "type": "function"
    },
    {
      "inputs": [],
      "name": "interval",
      "outputs": [
        {
          "internalType": "uint256",
          "name": "",
          "type": "uint256"
        }
      ],
      "stateMutability": "view",
      "type": "function"
    },
    {
      "inputs": [
        {
          "internalType": "address",
          "name": "owner",
          "type": "address"
        },
        {
          "internalType": "address",
          "name": "operator",
          "type": "address"
        }
      ],
      "name": "isApprovedForAll",
      "outputs": [
        {
          "internalType": "bool",
          "name": "",
          "type": "bool"
        }
      ],
      "stateMutability": "view",
      "type": "function"
    },
    {
      "inputs": [
        {
          "internalType": "string",
          "name": "productId",
          "type": "string"
        },
        {
          "internalType": "string",
          "name": "user",
          "type": "string"
        },
        {
          "internalType": "string",
          "name": "_date",
          "type": "string"
        },
        {
          "internalType": "address",
          "name": "reciever",
          "type": "address"
        }
      ],
      "name": "mintWarrantyNFT",
      "outputs": [],
      "stateMutability": "nonpayable",
      "type": "function"
    },
    {
      "inputs": [],
      "name": "name",
      "outputs": [
        {
          "internalType": "string",
          "name": "",
          "type": "string"
        }
      ],
      "stateMutability": "view",
      "type": "function"
    },
    {
      "inputs": [
        {
          "internalType": "uint256",
          "name": "tokenId",
          "type": "uint256"
        }
      ],
      "name": "ownerOf",
      "outputs": [
        {
          "internalType": "address",
          "name": "",
          "type": "address"
        }
      ],
      "stateMutability": "view",
      "type": "function"
    },
    {
      "inputs": [
        {
          "internalType": "address",
          "name": "from",
          "type": "address"
        },
        {
          "internalType": "address",
          "name": "to",
          "type": "address"
        },
        {
          "internalType": "uint256",
          "name": "tokenId",
          "type": "uint256"
        }
      ],
      "name": "safeTransferFrom",
      "outputs": [],
      "stateMutability": "nonpayable",
      "type": "function"
    },
    {
      "inputs": [
        {
          "internalType": "address",
          "name": "from",
          "type": "address"
        },
        {
          "internalType": "address",
          "name": "to",
          "type": "address"
        },
        {
          "internalType": "uint256",
          "name": "tokenId",
          "type": "uint256"
        },
        {
          "internalType": "bytes",
          "name": "data",
          "type": "bytes"
        }
      ],
      "name": "safeTransferFrom",
      "outputs": [],
      "stateMutability": "nonpayable",
      "type": "function"
    },
    {
      "inputs": [
        {
          "internalType": "address",
          "name": "operator",
          "type": "address"
        },
        {
          "internalType": "bool",
          "name": "approved",
          "type": "bool"
        }
      ],
      "name": "setApprovalForAll",
      "outputs": [],
      "stateMutability": "nonpayable",
      "type": "function"
    },
    {
      "inputs": [
        {
          "internalType": "uint256",
          "name": "timeInSeconds",
          "type": "uint256"
        }
      ],
      "name": "setInterval",
      "outputs": [],
      "stateMutability": "nonpayable",
      "type": "function"
    },
    {
      "inputs": [
        {
          "internalType": "bytes4",
          "name": "interfaceId",
          "type": "bytes4"
        }
      ],
      "name": "supportsInterface",
      "outputs": [
        {
          "internalType": "bool",
          "name": "",
          "type": "bool"
        }
      ],
      "stateMutability": "view",
      "type": "function"
    },
    {
      "inputs": [],
      "name": "symbol",
      "outputs": [
        {
          "internalType": "string",
          "name": "",
          "type": "string"
        }
      ],
      "stateMutability": "view",
      "type": "function"
    },
    {
      "inputs": [
        {
          "internalType": "uint256",
          "name": "",
          "type": "uint256"
        }
      ],
      "name": "timestamps",
      "outputs": [
        {
          "internalType": "uint256",
          "name": "",
          "type": "uint256"
        }
      ],
      "stateMutability": "view",
      "type": "function"
    },
    {
      "inputs": [
        {
          "internalType": "uint256",
          "name": "tokenId",
          "type": "uint256"
        }
      ],
      "name": "tokenURI",
      "outputs": [
        {
          "internalType": "string",
          "name": "",
          "type": "string"
        }
      ],
      "stateMutability": "view",
      "type": "function"
    },
    {
      "inputs": [
        {
          "internalType": "address",
          "name": "from",
          "type": "address"
        },
        {
          "internalType": "address",
          "name": "to",
          "type": "address"
        },
        {
          "internalType": "uint256",
          "name": "tokenId",
          "type": "uint256"
        }
      ],
      "name": "transferFrom",
      "outputs": [],
      "stateMutability": "nonpayable",
      "type": "function"
    },
    {
      "inputs": [],
      "name": "validity",
      "outputs": [
        {
          "internalType": "uint256",
          "name": "",
          "type": "uint256"
        }
      ],
      "stateMutability": "view",
      "type": "function"
    }
  ],
  "bytecode": "0x60806040523480156200001157600080fd5b506040518060400160405280600c81526020017f57617272616e74795465737400000000000000000000000000000000000000008152506040518060400160405280600581526020017f57524e5459000000000000000000000000000000000000000000000000000000815250816000908051906020019062000096929190620000db565b508060019080519060200190620000af929190620000db565b5050506201518060088190555062015180600854620000cf91906200018b565b60098190555062000261565b828054620000e990620001cd565b90600052602060002090601f0160209004810192826200010d576000855562000159565b82601f106200012857805160ff191683800117855562000159565b8280016001018555821562000159579182015b82811115620001585782518255916020019190600101906200013b565b5b5090506200016891906200016c565b5090565b5b80821115620001875760008160009055506001016200016d565b5090565b60006200019882620001c3565b9150620001a583620001c3565b925082620001b857620001b762000203565b5b828204905092915050565b6000819050919050565b60006002820490506001821680620001e657607f821691505b60208210811415620001fd57620001fc62000232565b5b50919050565b7f4e487b7100000000000000000000000000000000000000000000000000000000600052601260045260246000fd5b7f4e487b7100000000000000000000000000000000000000000000000000000000600052602260045260246000fd5b613d1480620002716000396000f3fe608060405234801561001057600080fd5b50600436106101375760003560e01c806370a08231116100b8578063947a36fb1161007c578063947a36fb1461035e57806395d89b411461037c578063a22cb4651461039a578063b88d4fde146103b6578063c87b56dd146103d2578063e985e9c51461040257610137565b806370a08231146102945780637c087353146102c45780638aa92a9a146102ce5780638bc33af3146102fe578063921881a81461032e57610137565b806322a90082116100ff57806322a90082146101f257806323b872dd1461020e5780633e98d1fb1461022a57806342842e0e146102485780636352211e1461026457610137565b806301ffc9a71461013c57806302f1325b1461016c57806306fdde0314610188578063081812fc146101a6578063095ea7b3146101d6575b600080fd5b610156600480360381019061015191906122af565b610432565b6040516101639190612b96565b60405180910390f35b61018660048036038101906101819190612404565b610514565b005b6101906105d9565b60405161019d9190612bb1565b60405180910390f35b6101c060048036038101906101bb91906124af565b61066b565b6040516101cd9190612b2f565b60405180910390f35b6101f060048036038101906101eb9190612273565b6106b1565b005b61020c600480360381019061020791906124af565b6107c9565b005b6102286004803603810190610223919061216d565b6107ea565b005b61023261084a565b60405161023f9190612d53565b60405180910390f35b610262600480360381019061025d919061216d565b610850565b005b61027e600480360381019061027991906124af565b610870565b60405161028b9190612b2f565b60405180910390f35b6102ae60048036038101906102a99190612108565b610922565b6040516102bb9190612d53565b60405180910390f35b6102cc6109da565b005b6102e860048036038101906102e3919061236d565b610b06565b6040516102f59190612bb1565b60405180910390f35b610318600480360381019061031391906124af565b610b47565b6040516103259190612d53565b60405180910390f35b61034860048036038101906103439190612301565b610b6b565b6040516103559190612bb1565b60405180910390f35b610366610bad565b6040516103739190612d53565b60405180910390f35b610384610bb3565b6040516103919190612bb1565b60405180910390f35b6103b460048036038101906103af9190612237565b610c45565b005b6103d060048036038101906103cb91906121bc565b610c5b565b005b6103ec60048036038101906103e791906124af565b610cbd565b6040516103f99190612bb1565b60405180910390f35b61041c60048036038101906104179190612131565b610dd0565b6040516104299190612b96565b60405180910390f35b60007f80ac58cd000000000000000000000000000000000000000000000000000000007bffffffffffffffffffffffffffffffffffffffffffffffffffffffff1916827bffffffffffffffffffffffffffffffffffffffffffffffffffffffff191614806104fd57507f5b5e139f000000000000000000000000000000000000000000000000000000007bffffffffffffffffffffffffffffffffffffffffffffffffffffffff1916827bffffffffffffffffffffffffffffffffffffffffffffffffffffffff1916145b8061050d575061050c82610e64565b5b9050919050565b60006105206007610ece565b9050600a4290806001815401808255809150506001900390600052602060002001600090919091909150556000610558868686610b06565b905060008560405160200161056d91906129c3565b6040516020818303038152906040529050600061058a8383610b6b565b905060008160405160200161059f9190612b0d565b60405160208183030381529060405290506105ba8686610edc565b6105c48582610efa565b6105ce6007610f6e565b505050505050505050565b6060600080546105e890613003565b80601f016020809104026020016040519081016040528092919081815260200182805461061490613003565b80156106615780601f1061063657610100808354040283529160200191610661565b820191906000526020600020905b81548152906001019060200180831161064457829003601f168201915b5050505050905090565b600061067682610f84565b6004600083815260200190815260200160002060009054906101000a900473ffffffffffffffffffffffffffffffffffffffff169050919050565b60006106bc82610870565b90508073ffffffffffffffffffffffffffffffffffffffff168373ffffffffffffffffffffffffffffffffffffffff16141561072d576040517f08c379a000000000000000000000000000000000000000000000000000000000815260040161072490612d13565b60405180910390fd5b8073ffffffffffffffffffffffffffffffffffffffff1661074c610fcf565b73ffffffffffffffffffffffffffffffffffffffff16148061077b575061077a81610775610fcf565b610dd0565b5b6107ba576040517f08c379a00000000000000000000000000000000000000000000000000000000081526004016107b190612cb3565b60405180910390fd5b6107c48383610fd7565b505050565b80600881905550620151806008546107e19190612e8e565b60098190555050565b6107fb6107f5610fcf565b82611090565b61083a576040517f08c379a000000000000000000000000000000000000000000000000000000000815260040161083190612d33565b60405180910390fd5b610845838383611125565b505050565b60095481565b61086b83838360405180602001604052806000815250610c5b565b505050565b6000806002600084815260200190815260200160002060009054906101000a900473ffffffffffffffffffffffffffffffffffffffff169050600073ffffffffffffffffffffffffffffffffffffffff168173ffffffffffffffffffffffffffffffffffffffff161415610919576040517f08c379a000000000000000000000000000000000000000000000000000000000815260040161091090612cf3565b60405180910390fd5b80915050919050565b60008073ffffffffffffffffffffffffffffffffffffffff168273ffffffffffffffffffffffffffffffffffffffff161415610993576040517f08c379a000000000000000000000000000000000000000000000000000000000815260040161098a90612c73565b60405180910390fd5b600360008373ffffffffffffffffffffffffffffffffffffffff1673ffffffffffffffffffffffffffffffffffffffff168152602001908152602001600020549050919050565b60005b600a80549050811015610b03576000600a8281548110610a26577f4e487b7100000000000000000000000000000000000000000000000000000000600052603260045260246000fd5b90600052602060002001541415610a3c57610af0565b6000600a8281548110610a78577f4e487b7100000000000000000000000000000000000000000000000000000000600052603260045260246000fd5b906000526020600020015442610a8e9190612f19565b9050600854811115610aee576000600a8381548110610ad6577f4e487b7100000000000000000000000000000000000000000000000000000000600052603260045260246000fd5b9060005260206000200181905550610aed8261138c565b5b505b8080610afb90613066565b9150506109dd565b50565b606060008385610b17600954611398565b85604051602001610b2b94939291906129e5565b6040516020818303038152906040529050809150509392505050565b600a8181548110610b5757600080fd5b906000526020600020016000915090505481565b60606000610ba183610b7c86611545565b604051602001610b8d929190612ac8565b604051602081830303815290604052611545565b90508091505092915050565b60085481565b606060018054610bc290613003565b80601f0160208091040260200160405190810160405280929190818152602001828054610bee90613003565b8015610c3b5780601f10610c1057610100808354040283529160200191610c3b565b820191906000526020600020905b815481529060010190602001808311610c1e57829003601f168201915b5050505050905090565b610c57610c50610fcf565b83836116cf565b5050565b610c6c610c66610fcf565b83611090565b610cab576040517f08c379a0000000000000000000000000000000000000000000000000000000008152600401610ca290612d33565b60405180910390fd5b610cb78484848461183c565b50505050565b6060610cc882610f84565b6000600660008481526020019081526020016000208054610ce890613003565b80601f0160208091040260200160405190810160405280929190818152602001828054610d1490613003565b8015610d615780601f10610d3657610100808354040283529160200191610d61565b820191906000526020600020905b815481529060010190602001808311610d4457829003601f168201915b505050505090506000610d72611898565b9050600081511415610d88578192505050610dcb565b600082511115610dbd578082604051602001610da592919061299f565b60405160208183030381529060405292505050610dcb565b610dc6846118af565b925050505b919050565b6000600560008473ffffffffffffffffffffffffffffffffffffffff1673ffffffffffffffffffffffffffffffffffffffff16815260200190815260200160002060008373ffffffffffffffffffffffffffffffffffffffff1673ffffffffffffffffffffffffffffffffffffffff16815260200190815260200160002060009054906101000a900460ff16905092915050565b60007f01ffc9a7000000000000000000000000000000000000000000000000000000007bffffffffffffffffffffffffffffffffffffffffffffffffffffffff1916827bffffffffffffffffffffffffffffffffffffffffffffffffffffffff1916149050919050565b600081600001549050919050565b610ef6828260405180602001604052806000815250611917565b5050565b610f0382611972565b610f42576040517f08c379a0000000000000000000000000000000000000000000000000000000008152600401610f3990612c93565b60405180910390fd5b80600660008481526020019081526020016000209080519060200190610f69929190611eec565b505050565b6001816000016000828254019250508190555050565b610f8d81611972565b610fcc576040517f08c379a0000000000000000000000000000000000000000000000000000000008152600401610fc390612cf3565b60405180910390fd5b50565b600033905090565b816004600083815260200190815260200160002060006101000a81548173ffffffffffffffffffffffffffffffffffffffff021916908373ffffffffffffffffffffffffffffffffffffffff160217905550808273ffffffffffffffffffffffffffffffffffffffff1661104a83610870565b73ffffffffffffffffffffffffffffffffffffffff167f8c5be1e5ebec7d5bd14f71427d1e84f3dd0314c0f7b2291e5b200ac8c7c3b92560405160405180910390a45050565b60008061109c83610870565b90508073ffffffffffffffffffffffffffffffffffffffff168473ffffffffffffffffffffffffffffffffffffffff1614806110de57506110dd8185610dd0565b5b8061111c57508373ffffffffffffffffffffffffffffffffffffffff166111048461066b565b73ffffffffffffffffffffffffffffffffffffffff16145b91505092915050565b8273ffffffffffffffffffffffffffffffffffffffff1661114582610870565b73ffffffffffffffffffffffffffffffffffffffff161461119b576040517f08c379a000000000000000000000000000000000000000000000000000000000815260040161119290612bf3565b60405180910390fd5b600073ffffffffffffffffffffffffffffffffffffffff168273ffffffffffffffffffffffffffffffffffffffff16141561120b576040517f08c379a000000000000000000000000000000000000000000000000000000000815260040161120290612c33565b60405180910390fd5b6112168383836119de565b611221600082610fd7565b6001600360008573ffffffffffffffffffffffffffffffffffffffff1673ffffffffffffffffffffffffffffffffffffffff16815260200190815260200160002060008282546112719190612f19565b925050819055506001600360008473ffffffffffffffffffffffffffffffffffffffff1673ffffffffffffffffffffffffffffffffffffffff16815260200190815260200160002060008282546112c89190612e38565b92505081905550816002600083815260200190815260200160002060006101000a81548173ffffffffffffffffffffffffffffffffffffffff021916908373ffffffffffffffffffffffffffffffffffffffff160217905550808273ffffffffffffffffffffffffffffffffffffffff168473ffffffffffffffffffffffffffffffffffffffff167fddf252ad1be2c89b69c2b068fc378daa952ba7f163c4a11628f55a4df523b3ef60405160405180910390a46113878383836119e3565b505050565b611395816119e8565b50565b606060008214156113e0576040518060400160405280600181526020017f30000000000000000000000000000000000000000000000000000000000000008152509050611540565b600082905060005b600082146114125780806113fb90613066565b915050600a8261140b9190612e8e565b91506113e8565b60008167ffffffffffffffff811115611454577f4e487b7100000000000000000000000000000000000000000000000000000000600052604160045260246000fd5b6040519080825280601f01601f1916602001820160405280156114865781602001600182028036833780820191505090505b5090505b600085146115395760018261149f9190612f19565b9150600a856114ae91906130af565b60306114ba9190612e38565b60f81b8183815181106114f6577f4e487b7100000000000000000000000000000000000000000000000000000000600052603260045260246000fd5b60200101907effffffffffffffffffffffffffffffffffffffffffffffffffffffffffffff1916908160001a905350600a856115329190612e8e565b945061148a565b8093505050505b919050565b6060600082511415611568576040518060200160405280600081525090506116ca565b6000604051806060016040528060408152602001613c9f60409139905060006003600285516115979190612e38565b6115a19190612e8e565b60046115ad9190612ebf565b67ffffffffffffffff8111156115ec577f4e487b7100000000000000000000000000000000000000000000000000000000600052604160045260246000fd5b6040519080825280601f01601f19166020018201604052801561161e5781602001600182028036833780820191505090505b509050600182016020820185865187015b8082101561168a576003820191508151603f8160121c168501518453600184019350603f81600c1c168501518453600184019350603f8160061c168501518453600184019350603f811685015184536001840193505061162f565b50506003865106600181146116a657600281146116b9576116c1565b603d6001830353603d60028303536116c1565b603d60018303535b50505080925050505b919050565b8173ffffffffffffffffffffffffffffffffffffffff168373ffffffffffffffffffffffffffffffffffffffff16141561173e576040517f08c379a000000000000000000000000000000000000000000000000000000000815260040161173590612c53565b60405180910390fd5b80600560008573ffffffffffffffffffffffffffffffffffffffff1673ffffffffffffffffffffffffffffffffffffffff16815260200190815260200160002060008473ffffffffffffffffffffffffffffffffffffffff1673ffffffffffffffffffffffffffffffffffffffff16815260200190815260200160002060006101000a81548160ff0219169083151502179055508173ffffffffffffffffffffffffffffffffffffffff168373ffffffffffffffffffffffffffffffffffffffff167f17307eab39ab6107e8899845ad3d59bd9653f200f220920489ca2b5937696c318360405161182f9190612b96565b60405180910390a3505050565b611847848484611125565b61185384848484611a3b565b611892576040517f08c379a000000000000000000000000000000000000000000000000000000000815260040161188990612bd3565b60405180910390fd5b50505050565b606060405180602001604052806000815250905090565b60606118ba82610f84565b60006118c4611898565b905060008151116118e4576040518060200160405280600081525061190f565b806118ee84611398565b6040516020016118ff92919061299f565b6040516020818303038152906040525b915050919050565b6119218383611bd2565b61192e6000848484611a3b565b61196d576040517f08c379a000000000000000000000000000000000000000000000000000000000815260040161196490612bd3565b60405180910390fd5b505050565b60008073ffffffffffffffffffffffffffffffffffffffff166002600084815260200190815260200160002060009054906101000a900473ffffffffffffffffffffffffffffffffffffffff1673ffffffffffffffffffffffffffffffffffffffff1614159050919050565b505050565b505050565b6119f181611dac565b6000600660008381526020019081526020016000208054611a1190613003565b905014611a3857600660008281526020019081526020016000206000611a379190611f72565b5b50565b6000611a5c8473ffffffffffffffffffffffffffffffffffffffff16611ec9565b15611bc5578373ffffffffffffffffffffffffffffffffffffffff1663150b7a02611a85610fcf565b8786866040518563ffffffff1660e01b8152600401611aa79493929190612b4a565b602060405180830381600087803b158015611ac157600080fd5b505af1925050508015611af257506040513d601f19601f82011682018060405250810190611aef91906122d8565b60015b611b75573d8060008114611b22576040519150601f19603f3d011682016040523d82523d6000602084013e611b27565b606091505b50600081511415611b6d576040517f08c379a0000000000000000000000000000000000000000000000000000000008152600401611b6490612bd3565b60405180910390fd5b805181602001fd5b63150b7a0260e01b7bffffffffffffffffffffffffffffffffffffffffffffffffffffffff1916817bffffffffffffffffffffffffffffffffffffffffffffffffffffffff191614915050611bca565b600190505b949350505050565b600073ffffffffffffffffffffffffffffffffffffffff168273ffffffffffffffffffffffffffffffffffffffff161415611c42576040517f08c379a0000000000000000000000000000000000000000000000000000000008152600401611c3990612cd3565b60405180910390fd5b611c4b81611972565b15611c8b576040517f08c379a0000000000000000000000000000000000000000000000000000000008152600401611c8290612c13565b60405180910390fd5b611c97600083836119de565b6001600360008473ffffffffffffffffffffffffffffffffffffffff1673ffffffffffffffffffffffffffffffffffffffff1681526020019081526020016000206000828254611ce79190612e38565b92505081905550816002600083815260200190815260200160002060006101000a81548173ffffffffffffffffffffffffffffffffffffffff021916908373ffffffffffffffffffffffffffffffffffffffff160217905550808273ffffffffffffffffffffffffffffffffffffffff16600073ffffffffffffffffffffffffffffffffffffffff167fddf252ad1be2c89b69c2b068fc378daa952ba7f163c4a11628f55a4df523b3ef60405160405180910390a4611da8600083836119e3565b5050565b6000611db782610870565b9050611dc5816000846119de565b611dd0600083610fd7565b6001600360008373ffffffffffffffffffffffffffffffffffffffff1673ffffffffffffffffffffffffffffffffffffffff1681526020019081526020016000206000828254611e209190612f19565b925050819055506002600083815260200190815260200160002060006101000a81549073ffffffffffffffffffffffffffffffffffffffff021916905581600073ffffffffffffffffffffffffffffffffffffffff168273ffffffffffffffffffffffffffffffffffffffff167fddf252ad1be2c89b69c2b068fc378daa952ba7f163c4a11628f55a4df523b3ef60405160405180910390a4611ec5816000846119e3565b5050565b6000808273ffffffffffffffffffffffffffffffffffffffff163b119050919050565b828054611ef890613003565b90600052602060002090601f016020900481019282611f1a5760008555611f61565b82601f10611f3357805160ff1916838001178555611f61565b82800160010185558215611f61579182015b82811115611f60578251825591602001919060010190611f45565b5b509050611f6e9190611fb2565b5090565b508054611f7e90613003565b6000825580601f10611f905750611faf565b601f016020900490600052602060002090810190611fae9190611fb2565b5b50565b5b80821115611fcb576000816000905550600101611fb3565b5090565b6000611fe2611fdd84612d93565b612d6e565b905082815260208101848484011115611ffa57600080fd5b612005848285612fc1565b509392505050565b600061202061201b84612dc4565b612d6e565b90508281526020810184848401111561203857600080fd5b612043848285612fc1565b509392505050565b60008135905061205a81613c42565b92915050565b60008135905061206f81613c59565b92915050565b60008135905061208481613c70565b92915050565b60008151905061209981613c70565b92915050565b600082601f8301126120b057600080fd5b81356120c0848260208601611fcf565b91505092915050565b600082601f8301126120da57600080fd5b81356120ea84826020860161200d565b91505092915050565b60008135905061210281613c87565b92915050565b60006020828403121561211a57600080fd5b60006121288482850161204b565b91505092915050565b6000806040838503121561214457600080fd5b60006121528582860161204b565b92505060206121638582860161204b565b9150509250929050565b60008060006060848603121561218257600080fd5b60006121908682870161204b565b93505060206121a18682870161204b565b92505060406121b2868287016120f3565b9150509250925092565b600080600080608085870312156121d257600080fd5b60006121e08782880161204b565b94505060206121f18782880161204b565b9350506040612202878288016120f3565b925050606085013567ffffffffffffffff81111561221f57600080fd5b61222b8782880161209f565b91505092959194509250565b6000806040838503121561224a57600080fd5b60006122588582860161204b565b925050602061226985828601612060565b9150509250929050565b6000806040838503121561228657600080fd5b60006122948582860161204b565b92505060206122a5858286016120f3565b9150509250929050565b6000602082840312156122c157600080fd5b60006122cf84828501612075565b91505092915050565b6000602082840312156122ea57600080fd5b60006122f88482850161208a565b91505092915050565b6000806040838503121561231457600080fd5b600083013567ffffffffffffffff81111561232e57600080fd5b61233a858286016120c9565b925050602083013567ffffffffffffffff81111561235757600080fd5b612363858286016120c9565b9150509250929050565b60008060006060848603121561238257600080fd5b600084013567ffffffffffffffff81111561239c57600080fd5b6123a8868287016120c9565b935050602084013567ffffffffffffffff8111156123c557600080fd5b6123d1868287016120c9565b925050604084013567ffffffffffffffff8111156123ee57600080fd5b6123fa868287016120c9565b9150509250925092565b6000806000806080858703121561241a57600080fd5b600085013567ffffffffffffffff81111561243457600080fd5b612440878288016120c9565b945050602085013567ffffffffffffffff81111561245d57600080fd5b612469878288016120c9565b935050604085013567ffffffffffffffff81111561248657600080fd5b612492878288016120c9565b92505060606124a38782880161204b565b91505092959194509250565b6000602082840312156124c157600080fd5b60006124cf848285016120f3565b91505092915050565b6124e181612f4d565b82525050565b6124f081612f5f565b82525050565b600061250182612df5565b61250b8185612e0b565b935061251b818560208601612fd0565b6125248161319c565b840191505092915050565b600061253a82612e00565b6125448185612e1c565b9350612554818560208601612fd0565b61255d8161319c565b840191505092915050565b600061257382612e00565b61257d8185612e2d565b935061258d818560208601612fd0565b80840191505092915050565b60006125a6600383612e2d565b91506125b1826131ad565b600382019050919050565b60006125c9603283612e1c565b91506125d4826131d6565b604082019050919050565b60006125ec609483612e2d565b91506125f782613225565b609482019050919050565b600061260f602583612e1c565b915061261a826132e6565b604082019050919050565b6000612632601c83612e1c565b915061263d82613335565b602082019050919050565b6000612655600483612e2d565b91506126608261335e565b600482019050919050565b600061267860b583612e2d565b915061268382613387565b60b582019050919050565b600061269b605f83612e2d565b91506126a68261346e565b605f82019050919050565b60006126be602483612e1c565b91506126c9826134e3565b604082019050919050565b60006126e1601983612e1c565b91506126ec82613532565b602082019050919050565b6000612704602983612e1c565b915061270f8261355b565b604082019050919050565b6000612727606a83612e2d565b9150612732826135aa565b606a82019050919050565b600061274a602e83612e1c565b915061275582613645565b604082019050919050565b600061276d600283612e2d565b915061277882613694565b600282019050919050565b6000612790600783612e2d565b915061279b826136bd565b600782019050919050565b60006127b3603e83612e1c565b91506127be826136e6565b604082019050919050565b60006127d6602083612e1c565b91506127e182613735565b602082019050919050565b60006127f9605183612e2d565b91506128048261375e565b605182019050919050565b600061281c600483612e2d565b9150612827826137d3565b600482019050919050565b600061283f600a83612e2d565b915061284a826137fc565b600a82019050919050565b6000612862601883612e1c565b915061286d82613825565b602082019050919050565b6000612885602183612e1c565b91506128908261384e565b604082019050919050565b60006128a8601d83612e2d565b91506128b38261389d565b601d82019050919050565b60006128cb60ba83612e2d565b91506128d6826138c6565b60ba82019050919050565b60006128ee60ba83612e2d565b91506128f9826139ad565b60ba82019050919050565b6000612911600b83612e2d565b915061291c82613a94565b600b82019050919050565b6000612934602e83612e1c565b915061293f82613abd565b604082019050919050565b6000612957600683612e2d565b915061296282613b0c565b600682019050919050565b600061297a60c183612e2d565b915061298582613b35565b60c182019050919050565b61299981612fb7565b82525050565b60006129ab8285612568565b91506129b78284612568565b91508190509392505050565b60006129cf8284612568565b91506129da82612904565b915081905092915050565b60006129f08261268e565b91506129fb82612599565b9150612a068261296d565b9150612a128287612568565b9150612a1d82612783565b9150612a288261266b565b9150612a348286612568565b9150612a3f82612783565b9150612a4a826128be565b9150612a568285612568565b9150612a6182612648565b9150612a6c82612783565b9150612a77826128e1565b9150612a838284612568565b9150612a8e82612783565b9150612a99826125df565b9150612aa48261271a565b9150612aaf8261280f565b9150612aba8261294a565b915081905095945050505050565b6000612ad382612832565b9150612adf8285612568565b9150612aea826127ec565b9150612af68284612568565b9150612b0182612760565b91508190509392505050565b6000612b188261289b565b9150612b248284612568565b915081905092915050565b6000602082019050612b4460008301846124d8565b92915050565b6000608082019050612b5f60008301876124d8565b612b6c60208301866124d8565b612b796040830185612990565b8181036060830152612b8b81846124f6565b905095945050505050565b6000602082019050612bab60008301846124e7565b92915050565b60006020820190508181036000830152612bcb818461252f565b905092915050565b60006020820190508181036000830152612bec816125bc565b9050919050565b60006020820190508181036000830152612c0c81612602565b9050919050565b60006020820190508181036000830152612c2c81612625565b9050919050565b60006020820190508181036000830152612c4c816126b1565b9050919050565b60006020820190508181036000830152612c6c816126d4565b9050919050565b60006020820190508181036000830152612c8c816126f7565b9050919050565b60006020820190508181036000830152612cac8161273d565b9050919050565b60006020820190508181036000830152612ccc816127a6565b9050919050565b60006020820190508181036000830152612cec816127c9565b9050919050565b60006020820190508181036000830152612d0c81612855565b9050919050565b60006020820190508181036000830152612d2c81612878565b9050919050565b60006020820190508181036000830152612d4c81612927565b9050919050565b6000602082019050612d686000830184612990565b92915050565b6000612d78612d89565b9050612d848282613035565b919050565b6000604051905090565b600067ffffffffffffffff821115612dae57612dad61316d565b5b612db78261319c565b9050602081019050919050565b600067ffffffffffffffff821115612ddf57612dde61316d565b5b612de88261319c565b9050602081019050919050565b600081519050919050565b600081519050919050565b600082825260208201905092915050565b600082825260208201905092915050565b600081905092915050565b6000612e4382612fb7565b9150612e4e83612fb7565b9250827fffffffffffffffffffffffffffffffffffffffffffffffffffffffffffffffff03821115612e8357612e826130e0565b5b828201905092915050565b6000612e9982612fb7565b9150612ea483612fb7565b925082612eb457612eb361310f565b5b828204905092915050565b6000612eca82612fb7565b9150612ed583612fb7565b9250817fffffffffffffffffffffffffffffffffffffffffffffffffffffffffffffffff0483118215151615612f0e57612f0d6130e0565b5b828202905092915050565b6000612f2482612fb7565b9150612f2f83612fb7565b925082821015612f4257612f416130e0565b5b828203905092915050565b6000612f5882612f97565b9050919050565b60008115159050919050565b60007fffffffff0000000000000000000000000000000000000000000000000000000082169050919050565b600073ffffffffffffffffffffffffffffffffffffffff82169050919050565b6000819050919050565b82818337600083830152505050565b60005b83811015612fee578082015181840152602081019050612fd3565b83811115612ffd576000848401525b50505050565b6000600282049050600182168061301b57607f821691505b6020821081141561302f5761302e61313e565b5b50919050565b61303e8261319c565b810181811067ffffffffffffffff8211171561305d5761305c61316d565b5b80604052505050565b600061307182612fb7565b91507fffffffffffffffffffffffffffffffffffffffffffffffffffffffffffffffff8214156130a4576130a36130e0565b5b600182019050919050565b60006130ba82612fb7565b91506130c583612fb7565b9250826130d5576130d461310f565b5b828206905092915050565b7f4e487b7100000000000000000000000000000000000000000000000000000000600052601160045260246000fd5b7f4e487b7100000000000000000000000000000000000000000000000000000000600052601260045260246000fd5b7f4e487b7100000000000000000000000000000000000000000000000000000000600052602260045260246000fd5b7f4e487b7100000000000000000000000000000000000000000000000000000000600052604160045260246000fd5b6000601f19601f8301169050919050565b7f3c673e0000000000000000000000000000000000000000000000000000000000600082015250565b7f4552433732313a207472616e7366657220746f206e6f6e20455243373231526560008201527f63656976657220696d706c656d656e7465720000000000000000000000000000602082015250565b7f3c70617468207472616e73666f726d3d22726f74617465283930203234302e3860008201527f32382034352e3937353229222069643d227376675f382220643d226d3234312e60208201527f34393135322c2d3139342e32353030356c2d312e33323732312c3438302e343560408201527f30343422206f7061636974793d22756e646566696e656422207374726f6b653d60608201527f2223303030222066696c6c3d226e6f6e65222f3e000000000000000000000000608082015250565b7f4552433732313a207472616e736665722066726f6d20696e636f72726563742060008201527f6f776e6572000000000000000000000000000000000000000000000000000000602082015250565b7f4552433732313a20746f6b656e20616c7265616479206d696e74656400000000600082015250565b7f4461797300000000000000000000000000000000000000000000000000000000600082015250565b7f3c7465787420786d6c3a73706163653d2270726573657276652220746578742d60008201527f616e63686f723d2273746172742220666f6e742d66616d696c793d224e6f746f60208201527f2053616e73204a502220666f6e742d73697a653d223234222069643d2273766760408201527f5f342220793d223339302e30302220783d2234352e303030303022207374726f60608201527f6b652d77696474683d223022207374726f6b653d2223303030222066696c6c3d60808201527f2223303030303030223e50726f647563742049443a000000000000000000000060a082015250565b7f3c7376672077696474683d223437392e3939393939393939393939393934222060008201527f6865696768743d223437392e39393939393939393939393939342220786d6c6e60208201527f733d22687474703a2f2f7777772e77332e6f72672f323030302f737667223e00604082015250565b7f4552433732313a207472616e7366657220746f20746865207a65726f2061646460008201527f7265737300000000000000000000000000000000000000000000000000000000602082015250565b7f4552433732313a20617070726f766520746f2063616c6c657200000000000000600082015250565b7f4552433732313a2061646472657373207a65726f206973206e6f74206120766160008201527f6c6964206f776e65720000000000000000000000000000000000000000000000602082015250565b7f3c706174682069643d227376675f392220643d226d34312e30383236332c2d3160008201527f2e38303434336c2d312e33323732312c3438302e343530343422206f7061636960208201527f74793d22756e646566696e656422207374726f6b653d2223303030222066696c60408201527f6c3d226e6f6e65222f3e00000000000000000000000000000000000000000000606082015250565b7f45524337323155524953746f726167653a2055524920736574206f66206e6f6e60008201527f6578697374656e7420746f6b656e000000000000000000000000000000000000602082015250565b7f227d000000000000000000000000000000000000000000000000000000000000600082015250565b7f3c2f746578743e00000000000000000000000000000000000000000000000000600082015250565b7f4552433732313a20617070726f76652063616c6c6572206973206e6f7420746f60008201527f6b656e206f776e6572206e6f7220617070726f76656420666f7220616c6c0000602082015250565b7f4552433732313a206d696e7420746f20746865207a65726f2061646472657373600082015250565b7f222c20226465736372697074696f6e223a2022596f7572204e4654207761727260008201527f616e7479206361726422202c2022696d616765223a2022646174613a696d616760208201527f652f7376672b786d6c3b6261736536342c000000000000000000000000000000604082015250565b7f3c2f673e00000000000000000000000000000000000000000000000000000000600082015250565b7f7b226e616d65223a202200000000000000000000000000000000000000000000600082015250565b7f4552433732313a20696e76616c696420746f6b656e2049440000000000000000600082015250565b7f4552433732313a20617070726f76616c20746f2063757272656e74206f776e6560008201527f7200000000000000000000000000000000000000000000000000000000000000602082015250565b7f646174613a6170706c69636174696f6e2f6a736f6e3b6261736536342c000000600082015250565b7f3c7465787420786d6c3a73706163653d2270726573657276652220746578742d60008201527f616e63686f723d2273746172742220666f6e742d66616d696c793d224e6f746f60208201527f2053616e73204a502220666f6e742d73697a653d223234222069643d2273766760408201527f5f362220793d223432302e30302220783d2234352e303030303022207374726f60608201527f6b652d77696474683d223022207374726f6b653d2223303030222066696c6c3d60808201527f2223303030303030223e57617272616e747920506572696f643a00000000000060a082015250565b7f3c7465787420786d6c3a73706163653d2270726573657276652220746578742d60008201527f616e63686f723d2273746172742220666f6e742d66616d696c793d224e6f746f60208201527f2053616e73204a502220666f6e742d73697a653d223234222069643d2273766760408201527f5f352220793d223435302e30302220783d2234352e303030303022207374726f60608201527f6b652d77696474683d223022207374726f6b653d2223303030222066696c6c3d60808201527f2223303030303030223e4461746520526567697374657265643a00000000000060a082015250565b7f27732077617272616e7479000000000000000000000000000000000000000000600082015250565b7f4552433732313a2063616c6c6572206973206e6f7420746f6b656e206f776e6560008201527f72206e6f7220617070726f766564000000000000000000000000000000000000602082015250565b7f3c2f7376673e0000000000000000000000000000000000000000000000000000600082015250565b7f3c7465787420786d6c3a73706163653d2270726573657276652220746578742d60008201527f616e63686f723d2273746172742220666f6e742d66616d696c793d224e6f746f60208201527f2053616e73204a502220666f6e742d73697a653d223234222069643d2273766760408201527f5f332220793d223137342e313838382220783d2234352e30303030302220737460608201527f726f6b652d77696474683d223022207374726f6b653d2223303030222066696c60808201527f6c3d2223303030303030223e57617272616e747920486f6c646572204e616d6560a08201527f3a0000000000000000000000000000000000000000000000000000000000000060c082015250565b613c4b81612f4d565b8114613c5657600080fd5b50565b613c6281612f5f565b8114613c6d57600080fd5b50565b613c7981612f6b565b8114613c8457600080fd5b50565b613c9081612fb7565b8114613c9b57600080fd5b5056fe4142434445464748494a4b4c4d4e4f505152535455565758595a6162636465666768696a6b6c6d6e6f707172737475767778797a303132333435363738392b2fa2646970667358221220eff5753b7b9fc3c83beb8add02aa9bc3a58f36b14bc2030c8e5017292569a2a664736f6c63430008040033",
  "linkReferences": {},
  "deployedLinkReferences": {}
}